{
  "contractName": "Mortal",
  "abi": [
    {
      "inputs": [],
      "payable": false,
      "stateMutability": "nonpayable",
      "type": "constructor"
    },
    {
      "constant": false,
      "inputs": [],
      "name": "kill",
      "outputs": [],
      "payable": false,
      "stateMutability": "nonpayable",
      "type": "function"
    }
  ],
  "bytecode": "0x608060405234801561001057600080fd5b50336000806101000a81548173ffffffffffffffffffffffffffffffffffffffff021916908373ffffffffffffffffffffffffffffffffffffffff16021790555060f38061005f6000396000f300608060405260043610603f576000357c0100000000000000000000000000000000000000000000000000000000900463ffffffff16806341c0e1b5146044575b600080fd5b348015604f57600080fd5b5060566058565b005b6000809054906101000a900473ffffffffffffffffffffffffffffffffffffffff1673ffffffffffffffffffffffffffffffffffffffff163373ffffffffffffffffffffffffffffffffffffffff16141560c5573373ffffffffffffffffffffffffffffffffffffffff16ff5b5600a165627a7a723058201fc8d2abb1a06b89472eb0aee49de0860ad488c4cc8a85a58db6d813a02344a00029",
  "source": "pragma solidity >=0.4.22 <0.6.0;\r\n\r\ncontract Mortal {\r\n    /* Define variable owner of the type address */\r\n    address owner;\r\n\r\n    /* This constructor is executed at initialization and sets the owner of the contract */\r\n    constructor() public { owner = msg.sender; }\r\n\r\n    /* Function to recover the funds on the contract */\r\n    function kill() public { if (msg.sender == owner) selfdestruct(msg.sender); }\r\n}\r\n\r\ncontract Greeter is Mortal {\r\n    /* Define variable greeting of the type string */\r\n    string greeting;\r\n\r\n    /* This runs when the contract is executed */\r\n    constructor(string memory _greeting) public {\r\n        greeting = _greeting;\r\n    }\r\n\r\n    /* Main function */\r\n    function greet() public view returns (string memory) {\r\n        return greeting;\r\n    }\r\n}",
  "sourcePath": "C:\\Timmy\\my-contract\\contracts\\greeter.sol",
  "compiler": {
    "name": "solc",
    "version": "0.4.24+commit.e67f0147.Emscripten.clang"
  },
  "schemaVersion": "2.0.1",
  "updatedAt": "2018-12-16T21:31:30.530Z"
}